:0300000002012FCB
:0C012F00787FE4F6D8FD7581070201100E
:0401450075B28322EA
:0400CE007F057E002C
:1000D200D3EF9400EE940040147D6E7C00ED1D7011
:0D00E200011CED4C70F7EF1F70E61E80E36F
:0100EF0022EE
:060003007E807D0D7C00F3
:060009009000001200C28D
:10000F00D2921200CEC2921200CE900000E0FCA35A
:10001F00E0FDA3E0FEA3E0FF9000051200C2E49014
:10002F000004F0900005A3E0FDA3A3E4FFFEED5450
:10003F0080FDE4FCFBFA7980F8C312009E7004D2B5
:10004F00918002C2917F017E001200D2D2907F0177
:10005F007E001200D2C2907F017E001200D290006B
:10006F0005E0FCA3E0FDA3E0FEA3E0FF7801120092
:10007F00AF9000051200C2900004E004F0E0C394BA
:0F008F001840A01200CED2927F057E000200D250
:1000F0007F921200037F931200037F047E007D0035
:100100007C001200097F017E0A7D007C000200094C
:0A013B00E4F5E175E24043A5E0227F
:1001100053D9BF12014512013B7F507EC31200D25A
:0F0120007F507EC31200D21200F01200F080FE5A
:10009E00EB9FF5F0EA9E42F0E99D42F0E89C45F0B8
:0100AE00222F
:1000AF00E8600FEFC333FFEE33FEED33FDEC33FCAF
:0300BF00D8F12253
:0C00C200ECF0A3EDF0A3EEF0A3EFF022B1
:00000001FF
